{
  "contractName": "SocioTope",
  "abi": [
    {
      "inputs": [
        {
          "internalType": "address payable",
          "name": "_admin",
          "type": "address"
        }
      ],
      "stateMutability": "nonpayable",
      "type": "constructor"
    },
    {
      "stateMutability": "nonpayable",
      "type": "fallback"
    },
    {
      "inputs": [
        {
          "internalType": "address",
          "name": "",
          "type": "address"
        },
        {
          "internalType": "uint256",
          "name": "",
          "type": "uint256"
        }
      ],
      "name": "CommentCountOfAdrById",
      "outputs": [
        {
          "internalType": "uint256",
          "name": "",
          "type": "uint256"
        }
      ],
      "stateMutability": "view",
      "type": "function"
    },
    {
      "inputs": [
        {
          "internalType": "address",
          "name": "",
          "type": "address"
        },
        {
          "internalType": "uint256",
          "name": "",
          "type": "uint256"
        }
      ],
      "name": "CommentIdOfAdrByCount",
      "outputs": [
        {
          "internalType": "uint256",
          "name": "id",
          "type": "uint256"
        },
        {
          "internalType": "uint256",
          "name": "sid",
          "type": "uint256"
        },
        {
          "internalType": "address",
          "name": "author",
          "type": "address"
        },
        {
          "internalType": "string",
          "name": "title",
          "type": "string"
        },
        {
          "internalType": "string",
          "name": "content",
          "type": "string"
        },
        {
          "internalType": "uint256",
          "name": "likes",
          "type": "uint256"
        }
      ],
      "stateMutability": "view",
      "type": "function"
    },
    {
      "inputs": [
        {
          "internalType": "address",
          "name": "",
          "type": "address"
        },
        {
          "internalType": "uint256",
          "name": "",
          "type": "uint256"
        }
      ],
      "name": "SocioCountOfAdrById",
      "outputs": [
        {
          "internalType": "uint256",
          "name": "",
          "type": "uint256"
        }
      ],
      "stateMutability": "view",
      "type": "function"
    },
    {
      "inputs": [
        {
          "internalType": "address",
          "name": "",
          "type": "address"
        },
        {
          "internalType": "uint256",
          "name": "",
          "type": "uint256"
        }
      ],
      "name": "SocioIdOfAdrByCount",
      "outputs": [
        {
          "internalType": "uint256",
          "name": "id",
          "type": "uint256"
        },
        {
          "internalType": "address",
          "name": "author",
          "type": "address"
        },
        {
          "internalType": "bool",
          "name": "master",
          "type": "bool"
        },
        {
          "internalType": "bool",
          "name": "pin",
          "type": "bool"
        },
        {
          "internalType": "uint256",
          "name": "copys",
          "type": "uint256"
        },
        {
          "internalType": "string",
          "name": "title",
          "type": "string"
        },
        {
          "internalType": "string",
          "name": "content",
          "type": "string"
        },
        {
          "internalType": "uint256",
          "name": "likes",
          "type": "uint256"
        }
      ],
      "stateMutability": "view",
      "type": "function"
    },
    {
      "inputs": [
        {
          "internalType": "address",
          "name": "",
          "type": "address"
        }
      ],
      "name": "blacklist",
      "outputs": [
        {
          "internalType": "bool",
          "name": "",
          "type": "bool"
        }
      ],
      "stateMutability": "view",
      "type": "function"
    },
    {
      "inputs": [
        {
          "internalType": "uint256",
          "name": "",
          "type": "uint256"
        }
      ],
      "name": "commentID",
      "outputs": [
        {
          "internalType": "bool",
          "name": "",
          "type": "bool"
        }
      ],
      "stateMutability": "view",
      "type": "function"
    },
    {
      "inputs": [
        {
          "internalType": "uint256",
          "name": "",
          "type": "uint256"
        }
      ],
      "name": "comments",
      "outputs": [
        {
          "internalType": "uint256",
          "name": "id",
          "type": "uint256"
        },
        {
          "internalType": "uint256",
          "name": "sid",
          "type": "uint256"
        },
        {
          "internalType": "address",
          "name": "author",
          "type": "address"
        },
        {
          "internalType": "string",
          "name": "title",
          "type": "string"
        },
        {
          "internalType": "string",
          "name": "content",
          "type": "string"
        },
        {
          "internalType": "uint256",
          "name": "likes",
          "type": "uint256"
        }
      ],
      "stateMutability": "view",
      "type": "function"
    },
    {
      "inputs": [],
      "name": "digits",
      "outputs": [
        {
          "internalType": "uint256",
          "name": "",
          "type": "uint256"
        }
      ],
      "stateMutability": "view",
      "type": "function"
    },
    {
      "inputs": [
        {
          "internalType": "address",
          "name": "",
          "type": "address"
        },
        {
          "internalType": "address",
          "name": "",
          "type": "address"
        }
      ],
      "name": "followers",
      "outputs": [
        {
          "internalType": "bool",
          "name": "",
          "type": "bool"
        }
      ],
      "stateMutability": "view",
      "type": "function"
    },
    {
      "inputs": [
        {
          "internalType": "address",
          "name": "",
          "type": "address"
        },
        {
          "internalType": "address",
          "name": "",
          "type": "address"
        }
      ],
      "name": "following",
      "outputs": [
        {
          "internalType": "bool",
          "name": "",
          "type": "bool"
        }
      ],
      "stateMutability": "view",
      "type": "function"
    },
    {
      "inputs": [
        {
          "internalType": "address",
          "name": "",
          "type": "address"
        },
        {
          "internalType": "uint256",
          "name": "",
          "type": "uint256"
        }
      ],
      "name": "greylist",
      "outputs": [
        {
          "internalType": "uint256",
          "name": "",
          "type": "uint256"
        }
      ],
      "stateMutability": "view",
      "type": "function"
    },
    {
      "inputs": [
        {
          "internalType": "address",
          "name": "",
          "type": "address"
        }
      ],
      "name": "greylisted",
      "outputs": [
        {
          "internalType": "uint256",
          "name": "",
          "type": "uint256"
        }
      ],
      "stateMutability": "view",
      "type": "function"
    },
    {
      "inputs": [
        {
          "internalType": "address",
          "name": "",
          "type": "address"
        },
        {
          "internalType": "address",
          "name": "",
          "type": "address"
        },
        {
          "internalType": "uint256",
          "name": "",
          "type": "uint256"
        }
      ],
      "name": "message",
      "outputs": [
        {
          "internalType": "string",
          "name": "",
          "type": "string"
        }
      ],
      "stateMutability": "view",
      "type": "function"
    },
    {
      "inputs": [
        {
          "internalType": "address",
          "name": "",
          "type": "address"
        }
      ],
      "name": "msgRec",
      "outputs": [
        {
          "internalType": "uint256",
          "name": "",
          "type": "uint256"
        }
      ],
      "stateMutability": "view",
      "type": "function"
    },
    {
      "inputs": [
        {
          "internalType": "address",
          "name": "",
          "type": "address"
        }
      ],
      "name": "msgSent",
      "outputs": [
        {
          "internalType": "uint256",
          "name": "",
          "type": "uint256"
        }
      ],
      "stateMutability": "view",
      "type": "function"
    },
    {
      "inputs": [],
      "name": "polyDAI",
      "outputs": [
        {
          "internalType": "contract IERC20",
          "name": "",
          "type": "address"
        }
      ],
      "stateMutability": "view",
      "type": "function"
    },
    {
      "inputs": [],
      "name": "polyETH",
      "outputs": [
        {
          "internalType": "contract IERC20",
          "name": "",
          "type": "address"
        }
      ],
      "stateMutability": "view",
      "type": "function"
    },
    {
      "inputs": [
        {
          "internalType": "uint256",
          "name": "",
          "type": "uint256"
        }
      ],
      "name": "profiles",
      "outputs": [
        {
          "internalType": "uint256",
          "name": "cnt",
          "type": "uint256"
        },
        {
          "internalType": "address",
          "name": "adr",
          "type": "address"
        },
        {
          "internalType": "string",
          "name": "avt",
          "type": "string"
        },
        {
          "internalType": "string",
          "name": "cols",
          "type": "string"
        },
        {
          "internalType": "string",
          "name": "fonts",
          "type": "string"
        },
        {
          "internalType": "uint256",
          "name": "layout",
          "type": "uint256"
        }
      ],
      "stateMutability": "view",
      "type": "function"
    },
    {
      "inputs": [
        {
          "internalType": "uint256",
          "name": "",
          "type": "uint256"
        }
      ],
      "name": "socioID",
      "outputs": [
        {
          "internalType": "bool",
          "name": "",
          "type": "bool"
        }
      ],
      "stateMutability": "view",
      "type": "function"
    },
    {
      "inputs": [
        {
          "internalType": "uint256",
          "name": "",
          "type": "uint256"
        }
      ],
      "name": "socios",
      "outputs": [
        {
          "internalType": "uint256",
          "name": "id",
          "type": "uint256"
        },
        {
          "internalType": "address",
          "name": "author",
          "type": "address"
        },
        {
          "internalType": "bool",
          "name": "master",
          "type": "bool"
        },
        {
          "internalType": "bool",
          "name": "pin",
          "type": "bool"
        },
        {
          "internalType": "uint256",
          "name": "copys",
          "type": "uint256"
        },
        {
          "internalType": "string",
          "name": "title",
          "type": "string"
        },
        {
          "internalType": "string",
          "name": "content",
          "type": "string"
        },
        {
          "internalType": "uint256",
          "name": "likes",
          "type": "uint256"
        }
      ],
      "stateMutability": "view",
      "type": "function"
    },
    {
      "inputs": [
        {
          "internalType": "address",
          "name": "",
          "type": "address"
        }
      ],
      "name": "userCountByAdr",
      "outputs": [
        {
          "internalType": "uint256",
          "name": "",
          "type": "uint256"
        }
      ],
      "stateMutability": "view",
      "type": "function"
    },
    {
      "inputs": [
        {
          "internalType": "uint256",
          "name": "",
          "type": "uint256"
        }
      ],
      "name": "users",
      "outputs": [
        {
          "internalType": "uint256",
          "name": "id",
          "type": "uint256"
        },
        {
          "internalType": "uint256",
          "name": "cnt",
          "type": "uint256"
        },
        {
          "internalType": "uint256",
          "name": "role",
          "type": "uint256"
        },
        {
          "internalType": "address",
          "name": "adr",
          "type": "address"
        },
        {
          "internalType": "string",
          "name": "name",
          "type": "string"
        },
        {
          "internalType": "string",
          "name": "email",
          "type": "string"
        },
        {
          "internalType": "uint256",
          "name": "likes",
          "type": "uint256"
        }
      ],
      "stateMutability": "view",
      "type": "function"
    },
    {
      "inputs": [
        {
          "internalType": "address",
          "name": "",
          "type": "address"
        }
      ],
      "name": "whitelist",
      "outputs": [
        {
          "internalType": "bool",
          "name": "",
          "type": "bool"
        }
      ],
      "stateMutability": "view",
      "type": "function"
    },
    {
      "inputs": [
        {
          "internalType": "uint256",
          "name": "_id",
          "type": "uint256"
        },
        {
          "internalType": "uint256",
          "name": "_cnt",
          "type": "uint256"
        },
        {
          "internalType": "address",
          "name": "_adr",
          "type": "address"
        },
        {
          "internalType": "string",
          "name": "_name",
          "type": "string"
        },
        {
          "internalType": "string",
          "name": "_email",
          "type": "string"
        }
      ],
      "name": "makeUser",
      "outputs": [
        {
          "internalType": "bool",
          "name": "",
          "type": "bool"
        }
      ],
      "stateMutability": "nonpayable",
      "type": "function"
    },
    {
      "inputs": [
        {
          "internalType": "address",
          "name": "_adr",
          "type": "address"
        },
        {
          "internalType": "string",
          "name": "_avt",
          "type": "string"
        },
        {
          "internalType": "string",
          "name": "_cols",
          "type": "string"
        },
        {
          "internalType": "string",
          "name": "_fonts",
          "type": "string"
        },
        {
          "internalType": "uint256",
          "name": "_layout",
          "type": "uint256"
        }
      ],
      "name": "makeProfile",
      "outputs": [
        {
          "internalType": "bool",
          "name": "",
          "type": "bool"
        }
      ],
      "stateMutability": "nonpayable",
      "type": "function"
    },
    {
      "inputs": [
        {
          "internalType": "uint256",
          "name": "_id",
          "type": "uint256"
        },
        {
          "internalType": "bool",
          "name": "_master",
          "type": "bool"
        },
        {
          "internalType": "bool",
          "name": "_pin",
          "type": "bool"
        },
        {
          "internalType": "uint256",
          "name": "_copys",
          "type": "uint256"
        },
        {
          "internalType": "string",
          "name": "_title",
          "type": "string"
        },
        {
          "internalType": "string",
          "name": "_content",
          "type": "string"
        }
      ],
      "name": "createSocio",
      "outputs": [
        {
          "internalType": "bool",
          "name": "",
          "type": "bool"
        }
      ],
      "stateMutability": "nonpayable",
      "type": "function"
    },
    {
      "inputs": [
        {
          "internalType": "uint256",
          "name": "_id",
          "type": "uint256"
        },
        {
          "internalType": "uint256",
          "name": "_sid",
          "type": "uint256"
        },
        {
          "internalType": "string",
          "name": "_title",
          "type": "string"
        },
        {
          "internalType": "string",
          "name": "_content",
          "type": "string"
        }
      ],
      "name": "createComment",
      "outputs": [
        {
          "internalType": "bool",
          "name": "",
          "type": "bool"
        }
      ],
      "stateMutability": "nonpayable",
      "type": "function"
    },
    {
      "inputs": [
        {
          "internalType": "uint256",
          "name": "_id",
          "type": "uint256"
        },
        {
          "internalType": "string",
          "name": "_title",
          "type": "string"
        },
        {
          "internalType": "string",
          "name": "_content",
          "type": "string"
        }
      ],
      "name": "editSocio",
      "outputs": [
        {
          "internalType": "bool",
          "name": "",
          "type": "bool"
        }
      ],
      "stateMutability": "nonpayable",
      "type": "function"
    },
    {
      "inputs": [
        {
          "internalType": "uint256",
          "name": "_id",
          "type": "uint256"
        },
        {
          "internalType": "string",
          "name": "_title",
          "type": "string"
        },
        {
          "internalType": "string",
          "name": "_content",
          "type": "string"
        }
      ],
      "name": "editComment",
      "outputs": [
        {
          "internalType": "bool",
          "name": "",
          "type": "bool"
        }
      ],
      "stateMutability": "nonpayable",
      "type": "function"
    },
    {
      "inputs": [
        {
          "internalType": "uint256",
          "name": "_id",
          "type": "uint256"
        }
      ],
      "name": "delSocio",
      "outputs": [
        {
          "internalType": "bool",
          "name": "",
          "type": "bool"
        }
      ],
      "stateMutability": "nonpayable",
      "type": "function"
    },
    {
      "inputs": [
        {
          "internalType": "uint256",
          "name": "_id",
          "type": "uint256"
        }
      ],
      "name": "delComment",
      "outputs": [
        {
          "internalType": "bool",
          "name": "",
          "type": "bool"
        }
      ],
      "stateMutability": "nonpayable",
      "type": "function"
    },
    {
      "inputs": [
        {
          "internalType": "uint256",
          "name": "_id",
          "type": "uint256"
        }
      ],
      "name": "likeSocio",
      "outputs": [
        {
          "internalType": "bool",
          "name": "",
          "type": "bool"
        }
      ],
      "stateMutability": "nonpayable",
      "type": "function"
    },
    {
      "inputs": [
        {
          "internalType": "uint256",
          "name": "_id",
          "type": "uint256"
        }
      ],
      "name": "likeComment",
      "outputs": [
        {
          "internalType": "bool",
          "name": "",
          "type": "bool"
        }
      ],
      "stateMutability": "nonpayable",
      "type": "function"
    },
    {
      "inputs": [
        {
          "internalType": "uint256",
          "name": "_id",
          "type": "uint256"
        }
      ],
      "name": "showSocio",
      "outputs": [
        {
          "components": [
            {
              "internalType": "uint256",
              "name": "id",
              "type": "uint256"
            },
            {
              "internalType": "address",
              "name": "author",
              "type": "address"
            },
            {
              "internalType": "bool",
              "name": "master",
              "type": "bool"
            },
            {
              "internalType": "bool",
              "name": "pin",
              "type": "bool"
            },
            {
              "internalType": "uint256",
              "name": "copys",
              "type": "uint256"
            },
            {
              "internalType": "address[]",
              "name": "ownedBy",
              "type": "address[]"
            },
            {
              "internalType": "string",
              "name": "title",
              "type": "string"
            },
            {
              "internalType": "string",
              "name": "content",
              "type": "string"
            },
            {
              "internalType": "address[]",
              "name": "likedBy",
              "type": "address[]"
            },
            {
              "internalType": "uint256",
              "name": "likes",
              "type": "uint256"
            }
          ],
          "internalType": "struct SocioTope.Socio",
          "name": "",
          "type": "tuple"
        }
      ],
      "stateMutability": "view",
      "type": "function"
    },
    {
      "inputs": [
        {
          "internalType": "uint256",
          "name": "_id",
          "type": "uint256"
        }
      ],
      "name": "showComment",
      "outputs": [
        {
          "components": [
            {
              "internalType": "uint256",
              "name": "id",
              "type": "uint256"
            },
            {
              "internalType": "uint256",
              "name": "sid",
              "type": "uint256"
            },
            {
              "internalType": "address",
              "name": "author",
              "type": "address"
            },
            {
              "internalType": "string",
              "name": "title",
              "type": "string"
            },
            {
              "internalType": "string",
              "name": "content",
              "type": "string"
            },
            {
              "internalType": "address[]",
              "name": "likedBy",
              "type": "address[]"
            },
            {
              "internalType": "uint256",
              "name": "likes",
              "type": "uint256"
            }
          ],
          "internalType": "struct SocioTope.Comment",
          "name": "",
          "type": "tuple"
        }
      ],
      "stateMutability": "view",
      "type": "function"
    },
    {
      "inputs": [],
      "name": "myGraph",
      "outputs": [
        {
          "components": [
            {
              "internalType": "uint256",
              "name": "id",
              "type": "uint256"
            },
            {
              "internalType": "uint256",
              "name": "cnt",
              "type": "uint256"
            },
            {
              "internalType": "uint256",
              "name": "role",
              "type": "uint256"
            },
            {
              "internalType": "address",
              "name": "adr",
              "type": "address"
            },
            {
              "internalType": "string",
              "name": "name",
              "type": "string"
            },
            {
              "internalType": "string",
              "name": "email",
              "type": "string"
            },
            {
              "internalType": "uint256",
              "name": "likes",
              "type": "uint256"
            }
          ],
          "internalType": "struct SocioTope.User",
          "name": "",
          "type": "tuple"
        },
        {
          "components": [
            {
              "internalType": "uint256",
              "name": "cnt",
              "type": "uint256"
            },
            {
              "internalType": "address",
              "name": "adr",
              "type": "address"
            },
            {
              "internalType": "string",
              "name": "avt",
              "type": "string"
            },
            {
              "internalType": "string",
              "name": "cols",
              "type": "string"
            },
            {
              "internalType": "string",
              "name": "fonts",
              "type": "string"
            },
            {
              "internalType": "uint256",
              "name": "layout",
              "type": "uint256"
            }
          ],
          "internalType": "struct SocioTope.Profile",
          "name": "",
          "type": "tuple"
        }
      ],
      "stateMutability": "view",
      "type": "function"
    },
    {
      "inputs": [],
      "name": "lastPosts",
      "outputs": [
        {
          "components": [
            {
              "internalType": "uint256",
              "name": "id",
              "type": "uint256"
            },
            {
              "internalType": "address",
              "name": "author",
              "type": "address"
            },
            {
              "internalType": "bool",
              "name": "master",
              "type": "bool"
            },
            {
              "internalType": "bool",
              "name": "pin",
              "type": "bool"
            },
            {
              "internalType": "uint256",
              "name": "copys",
              "type": "uint256"
            },
            {
              "internalType": "address[]",
              "name": "ownedBy",
              "type": "address[]"
            },
            {
              "internalType": "string",
              "name": "title",
              "type": "string"
            },
            {
              "internalType": "string",
              "name": "content",
              "type": "string"
            },
            {
              "internalType": "address[]",
              "name": "likedBy",
              "type": "address[]"
            },
            {
              "internalType": "uint256",
              "name": "likes",
              "type": "uint256"
            }
          ],
          "internalType": "struct SocioTope.Socio",
          "name": "",
          "type": "tuple"
        },
        {
          "components": [
            {
              "internalType": "uint256",
              "name": "id",
              "type": "uint256"
            },
            {
              "internalType": "address",
              "name": "author",
              "type": "address"
            },
            {
              "internalType": "bool",
              "name": "master",
              "type": "bool"
            },
            {
              "internalType": "bool",
              "name": "pin",
              "type": "bool"
            },
            {
              "internalType": "uint256",
              "name": "copys",
              "type": "uint256"
            },
            {
              "internalType": "address[]",
              "name": "ownedBy",
              "type": "address[]"
            },
            {
              "internalType": "string",
              "name": "title",
              "type": "string"
            },
            {
              "internalType": "string",
              "name": "content",
              "type": "string"
            },
            {
              "internalType": "address[]",
              "name": "likedBy",
              "type": "address[]"
            },
            {
              "internalType": "uint256",
              "name": "likes",
              "type": "uint256"
            }
          ],
          "internalType": "struct SocioTope.Socio",
          "name": "",
          "type": "tuple"
        },
        {
          "components": [
            {
              "internalType": "uint256",
              "name": "id",
              "type": "uint256"
            },
            {
              "internalType": "address",
              "name": "author",
              "type": "address"
            },
            {
              "internalType": "bool",
              "name": "master",
              "type": "bool"
            },
            {
              "internalType": "bool",
              "name": "pin",
              "type": "bool"
            },
            {
              "internalType": "uint256",
              "name": "copys",
              "type": "uint256"
            },
            {
              "internalType": "address[]",
              "name": "ownedBy",
              "type": "address[]"
            },
            {
              "internalType": "string",
              "name": "title",
              "type": "string"
            },
            {
              "internalType": "string",
              "name": "content",
              "type": "string"
            },
            {
              "internalType": "address[]",
              "name": "likedBy",
              "type": "address[]"
            },
            {
              "internalType": "uint256",
              "name": "likes",
              "type": "uint256"
            }
          ],
          "internalType": "struct SocioTope.Socio",
          "name": "",
          "type": "tuple"
        }
      ],
      "stateMutability": "view",
      "type": "function"
    },
    {
      "inputs": [],
      "name": "lastComments",
      "outputs": [
        {
          "components": [
            {
              "internalType": "uint256",
              "name": "id",
              "type": "uint256"
            },
            {
              "internalType": "uint256",
              "name": "sid",
              "type": "uint256"
            },
            {
              "internalType": "address",
              "name": "author",
              "type": "address"
            },
            {
              "internalType": "string",
              "name": "title",
              "type": "string"
            },
            {
              "internalType": "string",
              "name": "content",
              "type": "string"
            },
            {
              "internalType": "address[]",
              "name": "likedBy",
              "type": "address[]"
            },
            {
              "internalType": "uint256",
              "name": "likes",
              "type": "uint256"
            }
          ],
          "internalType": "struct SocioTope.Comment",
          "name": "",
          "type": "tuple"
        },
        {
          "components": [
            {
              "internalType": "uint256",
              "name": "id",
              "type": "uint256"
            },
            {
              "internalType": "uint256",
              "name": "sid",
              "type": "uint256"
            },
            {
              "internalType": "address",
              "name": "author",
              "type": "address"
            },
            {
              "internalType": "string",
              "name": "title",
              "type": "string"
            },
            {
              "internalType": "string",
              "name": "content",
              "type": "string"
            },
            {
              "internalType": "address[]",
              "name": "likedBy",
              "type": "address[]"
            },
            {
              "internalType": "uint256",
              "name": "likes",
              "type": "uint256"
            }
          ],
          "internalType": "struct SocioTope.Comment",
          "name": "",
          "type": "tuple"
        },
        {
          "components": [
            {
              "internalType": "uint256",
              "name": "id",
              "type": "uint256"
            },
            {
              "internalType": "uint256",
              "name": "sid",
              "type": "uint256"
            },
            {
              "internalType": "address",
              "name": "author",
              "type": "address"
            },
            {
              "internalType": "string",
              "name": "title",
              "type": "string"
            },
            {
              "internalType": "string",
              "name": "content",
              "type": "string"
            },
            {
              "internalType": "address[]",
              "name": "likedBy",
              "type": "address[]"
            },
            {
              "internalType": "uint256",
              "name": "likes",
              "type": "uint256"
            }
          ],
          "internalType": "struct SocioTope.Comment",
          "name": "",
          "type": "tuple"
        }
      ],
      "stateMutability": "view",
      "type": "function"
    },
    {
      "inputs": [
        {
          "internalType": "address",
          "name": "_follow",
          "type": "address"
        }
      ],
      "name": "follow",
      "outputs": [
        {
          "internalType": "bool",
          "name": "",
          "type": "bool"
        }
      ],
      "stateMutability": "nonpayable",
      "type": "function"
    },
    {
      "inputs": [
        {
          "internalType": "address",
          "name": "_follow",
          "type": "address"
        }
      ],
      "name": "unfollow",
      "outputs": [
        {
          "internalType": "bool",
          "name": "",
          "type": "bool"
        }
      ],
      "stateMutability": "nonpayable",
      "type": "function"
    },
    {
      "inputs": [
        {
          "internalType": "address",
          "name": "_to",
          "type": "address"
        },
        {
          "internalType": "string",
          "name": "_msg",
          "type": "string"
        }
      ],
      "name": "writeMessage",
      "outputs": [
        {
          "internalType": "bool",
          "name": "",
          "type": "bool"
        }
      ],
      "stateMutability": "nonpayable",
      "type": "function"
    },
    {
      "inputs": [
        {
          "internalType": "address",
          "name": "_from",
          "type": "address"
        }
      ],
      "name": "readMessage",
      "outputs": [
        {
          "internalType": "string",
          "name": "",
          "type": "string"
        }
      ],
      "stateMutability": "view",
      "type": "function"
    },
    {
      "inputs": [
        {
          "internalType": "uint256",
          "name": "_amountMAT",
          "type": "uint256"
        },
        {
          "internalType": "uint256",
          "name": "_amountETH",
          "type": "uint256"
        },
        {
          "internalType": "uint256",
          "name": "_amountDAI",
          "type": "uint256"
        },
        {
          "internalType": "address",
          "name": "_adr",
          "type": "address"
        }
      ],
      "name": "withdraw",
      "outputs": [
        {
          "internalType": "bool",
          "name": "",
          "type": "bool"
        }
      ],
      "stateMutability": "payable",
      "type": "function"
    },
    {
      "inputs": [
        {
          "internalType": "address",
          "name": "_erc",
          "type": "address"
        }
      ],
      "name": "withdrawUCO",
      "outputs": [
        {
          "internalType": "bool",
          "name": "",
          "type": "bool"
        }
      ],
      "stateMutability": "payable",
      "type": "function"
    }
  ],
  "bytecode": "0x6080604052600154600380546001600160a01b039283166001600160a01b031991821617909155600254600480549190931691161790553480156200004357600080fd5b5060405162005b8f38038062005b8f8339810160408190526200006691620006b6565b600080546001600160a01b038084166001600160a01b031992831681178455600f8490556040805160e0810182526305f5e0ff8152602080820187815260638385019081526060840195865284518086018652600681526573746572656f60d01b818501526080850190815285518087019096526011865270747970652e73746572656f40706d2e6d6560781b8685015260a0850195909552600a60c0850152601080546001810182559952835160079099027f1b6847dc741a1b0cd08d278845f9d819d87b734759afb55fe2de5cb82a9ae6728101998a5591517f1b6847dc741a1b0cd08d278845f9d819d87b734759afb55fe2de5cb82a9ae673830155517f1b6847dc741a1b0cd08d278845f9d819d87b734759afb55fe2de5cb82a9ae67482015593517f1b6847dc741a1b0cd08d278845f9d819d87b734759afb55fe2de5cb82a9ae6758501805491909616961695909517909355518051929493620001f7937f1b6847dc741a1b0cd08d278845f9d819d87b734759afb55fe2de5cb82a9ae676909301929101906200058c565b5060a08201518051620002159160058401916020909101906200058c565b5060c082015181600601555050620002b860008054906101000a90046001600160a01b03166040518060400160405280601681526020017f68747470733a2f2f697066732e696f2f697066732f2300000000000000000000815250604051806040016040528060058152602001641b1a59da1d60da1b8152506040518060400160405280600381526020016267656f60e81b81525060036200030e60201b60201c565b50600080546001600160a01b039081168252600960209081526040808420805460ff19166001908117909155600f548554909416855260129092529092208190556200030491620006e8565b600f555062000762565b6040805160c0810182526001600160a01b03808816600081815260126020908152858220548552808501928352948401898152606085018990526080850188905260a0850187905260118054600181018255908352855160069091027f31ecc21a745e3968a04e9570e4425bc18fa8019c68028196b546d1669c200c68810191825593517f31ecc21a745e3968a04e9570e4425bc18fa8019c68028196b546d1669c200c6985018054919096166001600160a01b031990911617909455518051919562000401937f31ecc21a745e3968a04e9570e4425bc18fa8019c68028196b546d1669c200c6a01929101906200058c565b50606082015180516200041f9160038401916020909101906200058c565b50608082015180516200043d9160048401916020909101906200058c565b5060a091909101516005909101556001600160a01b0386166000908152601260205260408120546010805490919081106200047c576200047c6200074c565b90600052602060002090600702019050600281600201819055508060060154600a620004a99190620006e8565b60068201556001600160a01b038716600090815260126020526040902054601080548392908110620004df57620004df6200074c565b600091825260209091208254600790920201908155600180830154908201556002808301549082015560038083015490820180546001600160a01b0319166001600160a01b03909216919091179055600480830180549183019162000544906200070f565b620005519291906200061b565b50600582018160050190805462000568906200070f565b620005759291906200061b565b506006918201549101555060019695505050505050565b8280546200059a906200070f565b90600052602060002090601f016020900481019282620005be576000855562000609565b82601f10620005d957805160ff191683800117855562000609565b8280016001018555821562000609579182015b8281111562000609578251825591602001919060010190620005ec565b50620006179291506200069f565b5090565b82805462000629906200070f565b90600052602060002090601f0160209004810192826200064d576000855562000609565b82601f1062000660578054855562000609565b828001600101855582156200060957600052602060002091601f016020900482015b828111156200060957825482559160010191906001019062000682565b5b80821115620006175760008155600101620006a0565b600060208284031215620006c957600080fd5b81516001600160a01b0381168114620006e157600080fd5b9392505050565b600082198211156200070a57634e487b7160e01b600052601160045260246000fd5b500190565b600181811c908216806200072457607f821691505b602082108114156200074657634e487b7160e01b600052602260045260246000fd5b50919050565b634e487b7160e01b600052603260045260246000fd5b61541d80620007726000396000f3fe6080604052600436106102665760003560e01c80638fb4706611610144578063c9dfe06e116100b6578063df1c5ae11161007a578063df1c5ae114610934578063e97bb66f14610961578063f1bcce9414610981578063f9f92be4146109a1578063fc0a237f146109d1578063fe21b6c0146109f157610266565b8063c9dfe06e14610883578063ce9ae001146108a3578063d331bef7146108de578063d8d85438146108f1578063d9d1802b1461091457610266565b8063a64fb95211610108578063a64fb95214610771578063aad1c6d71461079e578063ad88881b146107d6578063c16f122214610811578063c36fe3d614610831578063c6f524ca1461086357610266565b80638fb47066146106b157806398ef25b0146106de5780639b19251a146106fe5780639e20437c1461072e578063a5fb467a1461074457610266565b8063365b98b2116101dd57806371d80550116101a157806371d80550146105be578063729b0a36146105ee5780637520e79c146106265780637ee49ee3146106465780638b593e341461067e5780638ebb4c151461069157610266565b8063365b98b2146104a85780633c2035bd146104db5780633e517d231461050d578063473fc1bf1461052d5780634dbf27cc1461055157610266565b8063151fcc5c1161022f578063151fcc5c1461039b5780631fc3b334146103cb578063255e9c11146103ff578063265ce1021461042c5780632ba4fcaf146104505780632d3dfb111461047057610266565b80624db95d14610275578063012cc1e2146102aa578063015a4ead146102ca578063033001ba1461033357806314afa1421461036e575b34801561027257600080fd5b50005b34801561028157600080fd5b50610295610290366004614d1d565b610a11565b60405190151581526020015b60405180910390f35b3480156102b657600080fd5b506102956102c5366004614b5b565b610de0565b3480156102d657600080fd5b506102956102e5366004614994565b336000818152600a602090815260408083206001600160a01b03959095168352938152838220805460ff19908116909155600b82528483209383529290529190912080549091169055600190565b34801561033f57600080fd5b5061036061034e366004614994565b60076020526000908152604090205481565b6040519081526020016102a1565b34801561037a57600080fd5b5061038e610389366004614b5b565b611055565b6040516102a1919061504b565b3480156103a757600080fd5b506102956103b6366004614b5b565b601a6020526000908152604090205460ff1681565b3480156103d757600080fd5b506103eb6103e6366004614b5b565b611280565b6040516102a1989796959493929190615180565b34801561040b57600080fd5b5061041f61041a366004614994565b6113f9565b6040516102a19190615038565b34801561043857600080fd5b506104416114bf565b6040516102a19392919061505e565b34801561045c57600080fd5b5061029561046b366004614c95565b611b37565b34801561047c57600080fd5b5061036061048b366004614b14565b601e60209081526000928352604080842090915290825290205481565b3480156104b457600080fd5b506104c86104c3366004614b5b565b611ca8565b6040516102a1979695949392919061528f565b3480156104e757600080fd5b506104fb6104f6366004614b14565b611e13565b6040516102a196959493929190615250565b34801561051957600080fd5b5061041f6105283660046149e9565b611f6f565b34801561053957600080fd5b5061054261201a565b6040516102a1939291906150b4565b34801561055d57600080fd5b5061029561056c366004614994565b336000818152600a602090815260408083206001600160a01b039590951683529381528382208054600160ff199182168117909255600b83528584209484529390915292902080549091168217905590565b3480156105ca57600080fd5b506102956105d9366004614b5b565b60196020526000908152604090205460ff1681565b3480156105fa57600080fd5b5060035461060e906001600160a01b031681565b6040516001600160a01b0390911681526020016102a1565b34801561063257600080fd5b5060045461060e906001600160a01b031681565b34801561065257600080fd5b50610360610661366004614b14565b601760209081526000928352604080842090915290825290205481565b61029561068c366004614994565b6127ea565b34801561069d57600080fd5b506104fb6106ac366004614b5b565b612981565b3480156106bd57600080fd5b506103606106cc366004614994565b600e6020526000908152604090205481565b3480156106ea57600080fd5b506102956106f9366004614b8d565b6129d0565b34801561070a57600080fd5b50610295610719366004614994565b60096020526000908152604090205460ff1681565b34801561073a57600080fd5b5061036060055481565b34801561075057600080fd5b5061036061075f366004614994565b60136020526000908152604090205481565b34801561077d57600080fd5b5061036061078c366004614994565b600d6020526000908152604090205481565b3480156107aa57600080fd5b506103606107b9366004614b14565b600860209081526000928352604080842090915290825290205481565b3480156107e257600080fd5b506102956107f13660046149b6565b600b60209081526000928352604080842090915290825290205460ff1681565b34801561081d57600080fd5b5061029561082c366004614a25565b612f16565b34801561083d57600080fd5b5061085161084c366004614b5b565b612fc6565b6040516102a1969594939291906151ec565b34801561086f57600080fd5b5061029561087e366004614b5b565b6131b1565b34801561088f57600080fd5b5061029561089e366004614c28565b61331d565b3480156108af57600080fd5b506102956108be3660046149b6565b600a60209081526000928352604080842090915290825290205460ff1681565b6102956108ec366004614d94565b6134cd565b3480156108fd57600080fd5b506109066137b7565b6040516102a19291906150ed565b34801561092057600080fd5b5061029561092f366004614a73565b613c43565b34801561094057600080fd5b5061095461094f366004614b5b565b613eab565b6040516102a191906150a1565b34801561096d57600080fd5b5061029561097c366004614b5b565b61413b565b34801561098d57600080fd5b506103eb61099c366004614b14565b61433f565b3480156109ad57600080fd5b506102956109bc366004614994565b60066020526000908152604090205460ff1681565b3480156109dd57600080fd5b506102956109ec366004614c28565b614397565b3480156109fd57600080fd5b50610295610a0c366004614b5b565b6144d5565b33600090815260126020526040812054601080548392908110610a3657610a366153aa565b60009182526020808320898452601a9091526040909220546007909102909101915060ff16151560011415610a6a57600080fd5b60008581526019602052604090205460ff161515600114610a8a57600080fd5b601c6040518060e00160405280888152602001878152602001336001600160a01b03168152602001868152602001858152602001600067ffffffffffffffff811115610ad857610ad86153c0565b604051908082528060200260200182016040528015610b01578160200160208202803683370190505b50815260006020918201819052835460018082018655948252908290208351600790920201908155828201519381019390935560408201516002840180546001600160a01b0319166001600160a01b0390921691909117905560608201518051929392610b74926003850192019061469d565b5060808201518051610b9091600484019160209091019061469d565b5060a08201518051610bac916005840191602090910190614721565b5060c09190910151600691820155810154610bc89060016152e9565b6006820155601b54336000908152601e602090815260408083208a84529091529020819055601c80549091908110610c0257610c026153aa565b60009182526020808320338452601f82526040808520601d845281862054865290925292206007909102909101805482556001808201549083015560028082015490830180546001600160a01b0319166001600160a01b03929092169190911790556003808201805492939291830191610c7b90615337565b610c86929190614776565b506004820181600401908054610c9b90615337565b610ca6929190614776565b5060058281018054610cbb92840191906147f1565b50600691820154910155336000908152601d6020526040902054610ce09060016152e9565b336000908152601d6020908152604080832093909355601290522054601080548392908110610d1157610d116153aa565b600091825260209091208254600790920201908155600180830154908201556002808301549082015560038083015490820180546001600160a01b0319166001600160a01b039092169190911790556004808301805491830191610d7490615337565b610d7f929190614776565b506005820181600501908054610d9490615337565b610d9f929190614776565b506006918201549101556000868152601a60205260409020805460ff19166001908117909155601b54610dd1916152e9565b601b5550600195945050505050565b33600090815260126020526040812054601080548392908110610e0557610e056153aa565b60009182526020808320338452601e8252604080852088865290925290832054601c805460079094029092019450929183908110610e4557610e456153aa565b60009182526020808320888452601a9091526040909220546007909102909101915060ff161515600114610e7857600080fd5b600283600201541015610e8a57600080fd5b6005810180546001810182556000828152602090200180546001600160a01b031916331790558054610ebf90829081906147f1565b5081601c8481548110610ed457610ed46153aa565b6000918252602090912082546007909202019081556001808301549082015560028083015490820180546001600160a01b0319166001600160a01b039092169190911790556003808301805491830191610f2d90615337565b610f38929190614776565b506004820181600401908054610f4d90615337565b610f58929190614776565b5060058281018054610f6d92840191906147f1565b5060069182015490820155840154610f8790600190615320565b600685015533600090815260126020526040902054601080548692908110610fb157610fb16153aa565b600091825260209091208254600790920201908155600180830154908201556002808301549082015560038083015490820180546001600160a01b0319166001600160a01b03909216919091179055600480830180549183019161101490615337565b61101f929190614776565b50600582018160050190805461103490615337565b61103f929190614776565b5060069182015491015550600195945050505050565b61105d614830565b336000908152601e60209081526040808320858452909152902054601c80548290811061108c5761108c6153aa565b90600052602060002090600702016040518060e001604052908160008201548152602001600182015481526020016002820160009054906101000a90046001600160a01b03166001600160a01b03166001600160a01b031681526020016003820180546110f890615337565b80601f016020809104026020016040519081016040528092919081815260200182805461112490615337565b80156111715780601f1061114657610100808354040283529160200191611171565b820191906000526020600020905b81548152906001019060200180831161115457829003601f168201915b5050505050815260200160048201805461118a90615337565b80601f01602080910402602001604051908101604052809291908181526020018280546111b690615337565b80156112035780601f106111d857610100808354040283529160200191611203565b820191906000526020600020905b8154815290600101906020018083116111e657829003601f168201915b505050505081526020016005820180548060200260200160405190810160405280929190818152602001828054801561126557602002820191906000526020600020905b81546001600160a01b03168152600190910190602001808311611247575b50505050508152602001600682015481525050915050919050565b6015818154811061129057600080fd5b600091825260209091206008909102018054600182015460028301546004840180549395506001600160a01b0383169460ff600160a01b8504811695600160a81b90950416939091906112e290615337565b80601f016020809104026020016040519081016040528092919081815260200182805461130e90615337565b801561135b5780601f106113305761010080835404028352916020019161135b565b820191906000526020600020905b81548152906001019060200180831161133e57829003601f168201915b50505050509080600501805461137090615337565b80601f016020809104026020016040519081016040528092919081815260200182805461139c90615337565b80156113e95780601f106113be576101008083540402835291602001916113e9565b820191906000526020600020905b8154815290600101906020018083116113cc57829003601f168201915b5050505050908060070154905088565b6001600160a01b0381166000908152600c602090815260408083203384528252808320600d8352818420548452909152902080546060919061143a90615337565b80601f016020809104026020016040519081016040528092919081815260200182805461146690615337565b80156114b35780601f10611488576101008083540402835291602001916114b3565b820191906000526020600020905b81548152906001019060200180831161149657829003601f168201915b50505050509050919050565b6114c7614830565b6114cf614830565b6114d7614830565b336000908152601d602052604090205460038110156115335760405162461bcd60e51b81526020600482015260136024820152726e6f7420656e6f75676820636f6d6d656e747360681b60448201526064015b60405180910390fd5b601c611540600183615320565b81548110611550576115506153aa565b9060005260206000209060070201601c60028361156d9190615320565b8154811061157d5761157d6153aa565b9060005260206000209060070201601c60038461159a9190615320565b815481106115aa576115aa6153aa565b9060005260206000209060070201826040518060e001604052908160008201548152602001600182015481526020016002820160009054906101000a90046001600160a01b03166001600160a01b03166001600160a01b0316815260200160038201805461161790615337565b80601f016020809104026020016040519081016040528092919081815260200182805461164390615337565b80156116905780601f1061166557610100808354040283529160200191611690565b820191906000526020600020905b81548152906001019060200180831161167357829003601f168201915b505050505081526020016004820180546116a990615337565b80601f01602080910402602001604051908101604052809291908181526020018280546116d590615337565b80156117225780601f106116f757610100808354040283529160200191611722565b820191906000526020600020905b81548152906001019060200180831161170557829003601f168201915b505050505081526020016005820180548060200260200160405190810160405280929190818152602001828054801561178457602002820191906000526020600020905b81546001600160a01b03168152600190910190602001808311611766575b5050509183525050600691909101546020918201526040805160e0810182528554815260018601549281019290925260028501546001600160a01b0316908201526003840180549295509091849160608401916117e090615337565b80601f016020809104026020016040519081016040528092919081815260200182805461180c90615337565b80156118595780601f1061182e57610100808354040283529160200191611859565b820191906000526020600020905b81548152906001019060200180831161183c57829003601f168201915b5050505050815260200160048201805461187290615337565b80601f016020809104026020016040519081016040528092919081815260200182805461189e90615337565b80156118eb5780601f106118c0576101008083540402835291602001916118eb565b820191906000526020600020905b8154815290600101906020018083116118ce57829003601f168201915b505050505081526020016005820180548060200260200160405190810160405280929190818152602001828054801561194d57602002820191906000526020600020905b81546001600160a01b0316815260019091019060200180831161192f575b5050509183525050600691909101546020918201526040805160e0810182528454815260018501549281019290925260028401546001600160a01b0316908201526003830180549294509091839160608401916119a990615337565b80601f01602080910402602001604051908101604052809291908181526020018280546119d590615337565b8015611a225780601f106119f757610100808354040283529160200191611a22565b820191906000526020600020905b815481529060010190602001808311611a0557829003601f168201915b50505050508152602001600482018054611a3b90615337565b80601f0160208091040260200160405190810160405280929190818152602001828054611a6790615337565b8015611ab45780601f10611a8957610100808354040283529160200191611ab4565b820191906000526020600020905b815481529060010190602001808311611a9757829003601f168201915b5050505050815260200160058201805480602002602001604051908101604052809291908181526020018280548015611b1657602002820191906000526020600020905b81546001600160a01b03168152600190910190602001808311611af8575b50505050508152602001600682015481525050905093509350935050909192565b6040805160e081018252868152602080820187815260019383018481526001600160a01b03808916606086019081526080860189815260a08701899052600a60c08801526010805498890181556000908152875160079099027f1b6847dc741a1b0cd08d278845f9d819d87b734759afb55fe2de5cb82a9ae6728101998a5595517f1b6847dc741a1b0cd08d278845f9d819d87b734759afb55fe2de5cb82a9ae67387015593517f1b6847dc741a1b0cd08d278845f9d819d87b734759afb55fe2de5cb82a9ae67486015590517f1b6847dc741a1b0cd08d278845f9d819d87b734759afb55fe2de5cb82a9ae67585018054919093166001600160a01b031990911617909155518051919593611c72937f1b6847dc741a1b0cd08d278845f9d819d87b734759afb55fe2de5cb82a9ae676019291019061469d565b5060a08201518051611c8e91600584019160209091019061469d565b5060c0820151816006015550506001905095945050505050565b60108181548110611cb857600080fd5b600091825260209091206007909102018054600182015460028301546003840154600485018054949650929491936001600160a01b039091169290611cfc90615337565b80601f0160208091040260200160405190810160405280929190818152602001828054611d2890615337565b8015611d755780601f10611d4a57610100808354040283529160200191611d75565b820191906000526020600020905b815481529060010190602001808311611d5857829003601f168201915b505050505090806005018054611d8a90615337565b80601f0160208091040260200160405190810160405280929190818152602001828054611db690615337565b8015611e035780601f10611dd857610100808354040283529160200191611e03565b820191906000526020600020905b815481529060010190602001808311611de657829003601f168201915b5050505050908060060154905087565b601f6020908152600092835260408084209091529082529020805460018201546002830154600384018054939492936001600160a01b039092169291611e5890615337565b80601f0160208091040260200160405190810160405280929190818152602001828054611e8490615337565b8015611ed15780601f10611ea657610100808354040283529160200191611ed1565b820191906000526020600020905b815481529060010190602001808311611eb457829003601f168201915b505050505090806004018054611ee690615337565b80601f0160208091040260200160405190810160405280929190818152602001828054611f1290615337565b8015611f5f5780601f10611f3457610100808354040283529160200191611f5f565b820191906000526020600020905b815481529060010190602001808311611f4257829003601f168201915b5050505050908060060154905086565b600c60209081526000938452604080852082529284528284209052825290208054611f9990615337565b80601f0160208091040260200160405190810160405280929190818152602001828054611fc590615337565b80156120125780601f10611fe757610100808354040283529160200191612012565b820191906000526020600020905b815481529060010190602001808311611ff557829003601f168201915b505050505081565b612022614876565b61202a614876565b612032614876565b3360009081526016602052604090205460038110156120865760405162461bcd60e51b815260206004820152601060248201526f6e6f7420656e6f75676820706f73747360801b604482015260640161152a565b6015612093600183615320565b815481106120a3576120a36153aa565b906000526020600020906008020160156002836120c09190615320565b815481106120d0576120d06153aa565b906000526020600020906008020160156003846120ed9190615320565b815481106120fd576120fd6153aa565b600091825260209182902060408051610140810182528654815260018701546001600160a01b0381168287015260ff600160a01b82048116151583850152600160a81b9091041615156060820152600287015460808201526003870180548351818802810188019094528084526008909502909301949093879360a0860193929091908301828280156121b957602002820191906000526020600020905b81546001600160a01b0316815260019091019060200180831161219b575b505050505081526020016004820180546121d290615337565b80601f01602080910402602001604051908101604052809291908181526020018280546121fe90615337565b801561224b5780601f106122205761010080835404028352916020019161224b565b820191906000526020600020905b81548152906001019060200180831161222e57829003601f168201915b5050505050815260200160058201805461226490615337565b80601f016020809104026020016040519081016040528092919081815260200182805461229090615337565b80156122dd5780601f106122b2576101008083540402835291602001916122dd565b820191906000526020600020905b8154815290600101906020018083116122c057829003601f168201915b505050505081526020016006820180548060200260200160405190810160405280929190818152602001828054801561233f57602002820191906000526020600020905b81546001600160a01b03168152600190910190602001808311612321575b50505091835250506007919091015460209182015260408051610140810182528554815260018601546001600160a01b0381168285015260ff600160a01b82048116151583850152600160a81b9091041615156060820152600286015460808201526003860180548351818602810186019094528084529497509093869360a08601939291908301828280156123fe57602002820191906000526020600020905b81546001600160a01b031681526001909101906020018083116123e0575b5050505050815260200160048201805461241790615337565b80601f016020809104026020016040519081016040528092919081815260200182805461244390615337565b80156124905780601f1061246557610100808354040283529160200191612490565b820191906000526020600020905b81548152906001019060200180831161247357829003601f168201915b505050505081526020016005820180546124a990615337565b80601f01602080910402602001604051908101604052809291908181526020018280546124d590615337565b80156125225780601f106124f757610100808354040283529160200191612522565b820191906000526020600020905b81548152906001019060200180831161250557829003601f168201915b505050505081526020016006820180548060200260200160405190810160405280929190818152602001828054801561258457602002820191906000526020600020905b81546001600160a01b03168152600190910190602001808311612566575b50505091835250506007919091015460209182015260408051610140810182528454815260018501546001600160a01b0381168285015260ff600160a01b82048116151583850152600160a81b9091041615156060820152600285015460808201526003850180548351818602810186019094528084529496509093859360a086019392919083018282801561264357602002820191906000526020600020905b81546001600160a01b03168152600190910190602001808311612625575b5050505050815260200160048201805461265c90615337565b80601f016020809104026020016040519081016040528092919081815260200182805461268890615337565b80156126d55780601f106126aa576101008083540402835291602001916126d5565b820191906000526020600020905b8154815290600101906020018083116126b857829003601f168201915b505050505081526020016005820180546126ee90615337565b80601f016020809104026020016040519081016040528092919081815260200182805461271a90615337565b80156127675780601f1061273c57610100808354040283529160200191612767565b820191906000526020600020905b81548152906001019060200180831161274a57829003601f168201915b50505050508152602001600682018054806020026020016040519081016040528092919081815260200182805480156127c957602002820191906000526020600020905b81546001600160a01b031681526001909101906020018083116127ab575b50505050508152602001600782015481525050905093509350935050909192565b6040516370a0823160e01b8152306004820152600090829082906001600160a01b038316906370a082319060240160206040518083038186803b15801561283057600080fd5b505afa158015612844573d6000803e3d6000fd5b505050506040513d601f19601f820116820180604052508101906128689190614b74565b101561287357600080fd5b6000546040516370a0823160e01b81523060048201526001600160a01b038381169263a9059cbb9291169083906370a082319060240160206040518083038186803b1580156128c157600080fd5b505afa1580156128d5573d6000803e3d6000fd5b505050506040513d601f19601f820116820180604052508101906128f99190614b74565b6040516001600160e01b031960e085901b1681526001600160a01b0390921660048301526024820152604401602060405180830381600087803b15801561293f57600080fd5b505af1158015612953573d6000803e3d6000fd5b505050506040513d601f19601f820116820180604052508101906129779190614b3e565b5060019392505050565b601c818154811061299157600080fd5b6000918252602090912060079091020180546001820154600283015460038401805493955091936001600160a01b0390911692909190611e5890615337565b336000908152601260205260408120546010805483929081106129f5576129f56153aa565b600091825260208083208b845260199091526040909220546007909102909101915060ff16151560011415612a2957600080fd5b600281600201541015612a3b57600080fd5b60156040518061014001604052808a8152602001336001600160a01b0316815260200189151581526020018815158152602001878152602001600067ffffffffffffffff811115612a8e57612a8e6153c0565b604051908082528060200260200182016040528015612ab7578160200160208202803683370190505b50815260208101879052604081018690526060016000604051908082528060200260200182016040528015612af6578160200160208202803683370190505b50815260006020918201819052835460018181018655948252908290208351600890920201908155828201519381018054604085015160608601511515600160a81b0260ff60a81b19911515600160a01b026001600160a81b03199093166001600160a01b03909816979097179190911716949094179093556080820151600284015560a08201518051929392612b939260038501920190614721565b5060c08201518051612baf91600484019160209091019061469d565b5060e08201518051612bcb91600584019160209091019061469d565b506101008201518051612be8916006840191602090910190614721565b506101208201518160070155505080600601546002612c0791906152e9565b60068201556014543360009081526017602090815260408083208c84529091529020819055601580549091908110612c4157612c416153aa565b600091825260208083203384526018825260408085206016845281862054865290925292206008909102909101805482556001808201805491840180546001600160a01b031981166001600160a01b03949094169384178255825460ff600160a01b91829004811615159091026001600160a81b0319909216909417178082559154600160a81b90819004909316151590920260ff60a81b199091161790556002808201549083015560038082018054929392612d0192840191906147f1565b506004820181600401908054612d1690615337565b612d21929190614776565b506005820181600501908054612d3690615337565b612d41929190614776565b5060068281018054612d5692840191906147f1565b5060079182015491015533600090815260166020526040902054612d7b9060016152e9565b336000908152601660205260409020819055612d9990600990615372565b612db3576006810154612dad9060016152e9565b60068201555b33600090815260166020526040902054612dcf90606390615372565b612de9576006810154612de390600a6152e9565b60068201555b33600090815260166020526040902054612e06906103e790615372565b612e20576006810154612e1a9060646152e9565b60068201555b33600090815260126020526040902054601080548392908110612e4557612e456153aa565b600091825260209091208254600790920201908155600180830154908201556002808301549082015560038083015490820180546001600160a01b0319166001600160a01b039092169190911790556004808301805491830191612ea890615337565b612eb3929190614776565b506005820181600501908054612ec890615337565b612ed3929190614776565b506006918201549101556000888152601960205260409020805460ff19166001908117909155601454612f05916152e9565b601455506001979650505050505050565b336000908152600c602090815260408083206001600160a01b03861684528252808320600d8352818420548452825282208351612f559285019061469d565b506001600160a01b0383166000908152600d6020526040902054612f7a9060016152e9565b6001600160a01b0384166000908152600d6020908152604080832093909355338252600e90522054612fad9060016152e9565b336000908152600e602052604090205550600192915050565b60118181548110612fd657600080fd5b60009182526020909120600690910201805460018201546002830180549294506001600160a01b03909116929161300c90615337565b80601f016020809104026020016040519081016040528092919081815260200182805461303890615337565b80156130855780601f1061305a57610100808354040283529160200191613085565b820191906000526020600020905b81548152906001019060200180831161306857829003601f168201915b50505050509080600301805461309a90615337565b80601f01602080910402602001604051908101604052809291908181526020018280546130c690615337565b80156131135780601f106130e857610100808354040283529160200191613113565b820191906000526020600020905b8154815290600101906020018083116130f657829003601f168201915b50505050509080600401805461312890615337565b80601f016020809104026020016040519081016040528092919081815260200182805461315490615337565b80156131a15780601f10613176576101008083540402835291602001916131a1565b820191906000526020600020905b81548152906001019060200180831161318457829003601f168201915b5050505050908060050154905086565b6000818152601a602052604081205460ff1615156001146131d157600080fd5b336000908152601e60209081526040808320858452909152812054601c805491929183908110613203576132036153aa565b906000526020600020906007020190506040518060200160405280600081525081600301908051906020019061323a92919061469d565b5060408051602081019182905260009081905261325b91600484019161469d565b5080601c8381548110613270576132706153aa565b6000918252602090912082546007909202019081556001808301549082015560028083015490820180546001600160a01b0319166001600160a01b0390921691909117905560038083018054918301916132c990615337565b6132d4929190614776565b5060048201816004019080546132e990615337565b6132f4929190614776565b506005828101805461330992840191906147f1565b506006918201549101555060019392505050565b60008381526019602052604081205460ff16151560011461333d57600080fd5b336000908152601760209081526040808320878452909152812054601580549192918390811061336f5761336f6153aa565b906000526020600020906008020190508481600401908051906020019061339792919061469d565b5083516133ad906005830190602087019061469d565b5080601583815481106133c2576133c26153aa565b6000918252602090912082546008909202019081556001808301805491830180546001600160a01b031981166001600160a01b039094169384178255825460ff600160a01b91829004811615159091026001600160a81b0319909216909417178082559154600160a81b90819004909316151590920260ff60a81b19909116179055600280830154908201556003808301805461346292840191906147f1565b50600482018160040190805461347790615337565b613482929190614776565b50600582018160050190805461349790615337565b6134a2929190614776565b50600682810180546134b792840191906147f1565b5060079182015491015550600195945050505050565b6001600160a01b03811660009081526009602052604081205460ff1615156001146134f757600080fd5b6000546001600160a01b0316331461350e57600080fd5b60055461351b9085615301565b6003546040516370a0823160e01b81523060048201526001600160a01b03909116906370a082319060240160206040518083038186803b15801561355e57600080fd5b505afa158015613572573d6000803e3d6000fd5b505050506040513d601f19601f820116820180604052508101906135969190614b74565b10156135a157600080fd5b60035460005460405163a9059cbb60e01b81526001600160a01b0391821660048201526024810187905291169063a9059cbb90604401602060405180830381600087803b1580156135f157600080fd5b505af1158015613605573d6000803e3d6000fd5b505050506040513d601f19601f820116820180604052508101906136299190614b3e565b506005546136379084615301565b600480546040516370a0823160e01b815230928101929092526001600160a01b0316906370a082319060240160206040518083038186803b15801561367b57600080fd5b505afa15801561368f573d6000803e3d6000fd5b505050506040513d601f19601f820116820180604052508101906136b39190614b74565b10156136be57600080fd5b6004805460005460405163a9059cbb60e01b81526001600160a01b039182169381019390935260248301869052169063a9059cbb90604401602060405180830381600087803b15801561371057600080fd5b505af1158015613724573d6000803e3d6000fd5b505050506040513d601f19601f820116820180604052508101906137489190614b3e565b506005546137569086615301565b61376690655af3107a40006152e9565b47101561377257600080fd5b600080546040516001600160a01b039091169187156108fc02918891818181858888f193505050501580156137ab573d6000803e3d6000fd5b50600195945050505050565b6138006040518060e0016040528060008152602001600081526020016000815260200160006001600160a01b031681526020016060815260200160608152602001600081525090565b6138426040518060c001604052806000815260200160006001600160a01b03168152602001606081526020016060815260200160608152602001600081525090565b33600090815260126020526040812054601080549091908110613867576138676153aa565b90600052602060002090600702016040518060e00160405290816000820154815260200160018201548152602001600282015481526020016003820160009054906101000a90046001600160a01b03166001600160a01b03166001600160a01b031681526020016004820180546138dd90615337565b80601f016020809104026020016040519081016040528092919081815260200182805461390990615337565b80156139565780601f1061392b57610100808354040283529160200191613956565b820191906000526020600020905b81548152906001019060200180831161393957829003601f168201915b5050505050815260200160058201805461396f90615337565b80601f016020809104026020016040519081016040528092919081815260200182805461399b90615337565b80156139e85780601f106139bd576101008083540402835291602001916139e8565b820191906000526020600020905b8154815290600101906020018083116139cb57829003601f168201915b505050918352505060069190910154602091820152336000908152601290915260408120546011805493945091928110613a2457613a246153aa565b90600052602060002090600602016040518060c0016040529081600082015481526020016001820160009054906101000a90046001600160a01b03166001600160a01b03166001600160a01b03168152602001600282018054613a8690615337565b80601f0160208091040260200160405190810160405280929190818152602001828054613ab290615337565b8015613aff5780601f10613ad457610100808354040283529160200191613aff565b820191906000526020600020905b815481529060010190602001808311613ae257829003601f168201915b50505050508152602001600382018054613b1890615337565b80601f0160208091040260200160405190810160405280929190818152602001828054613b4490615337565b8015613b915780601f10613b6657610100808354040283529160200191613b91565b820191906000526020600020905b815481529060010190602001808311613b7457829003601f168201915b50505050508152602001600482018054613baa90615337565b80601f0160208091040260200160405190810160405280929190818152602001828054613bd690615337565b8015613c235780601f10613bf857610100808354040283529160200191613c23565b820191906000526020600020905b815481529060010190602001808311613c0657829003601f168201915b505050918352505060059190910154602090910152919491935090915050565b6040805160c0810182526001600160a01b03808816600081815260126020908152858220548552808501928352948401898152606085018990526080850188905260a0850187905260118054600181018255908352855160069091027f31ecc21a745e3968a04e9570e4425bc18fa8019c68028196b546d1669c200c68810191825593517f31ecc21a745e3968a04e9570e4425bc18fa8019c68028196b546d1669c200c6985018054919096166001600160a01b0319909116179094555180519195613d34937f31ecc21a745e3968a04e9570e4425bc18fa8019c68028196b546d1669c200c6a019291019061469d565b5060608201518051613d5091600384019160209091019061469d565b5060808201518051613d6c91600484019160209091019061469d565b5060a091909101516005909101556001600160a01b038616600090815260126020526040812054601080549091908110613da857613da86153aa565b90600052602060002090600702019050600281600201819055508060060154600a613dd391906152e9565b60068201556001600160a01b038716600090815260126020526040902054601080548392908110613e0657613e066153aa565b600091825260209091208254600790920201908155600180830154908201556002808301549082015560038083015490820180546001600160a01b0319166001600160a01b039092169190911790556004808301805491830191613e6990615337565b613e74929190614776565b506005820181600501908054613e8990615337565b613e94929190614776565b506006918201549101555060019695505050505050565b613eb3614876565b3360009081526017602090815260408083208584529091529020546015805482908110613ee257613ee26153aa565b6000918252602091829020604080516101408101825260089093029091018054835260018101546001600160a01b0381168486015260ff600160a01b82048116151585850152600160a81b9091041615156060840152600281015460808401526003810180548351818702810187019094528084529394919360a086019392830182828015613f9a57602002820191906000526020600020905b81546001600160a01b03168152600190910190602001808311613f7c575b50505050508152602001600482018054613fb390615337565b80601f0160208091040260200160405190810160405280929190818152602001828054613fdf90615337565b801561402c5780601f106140015761010080835404028352916020019161402c565b820191906000526020600020905b81548152906001019060200180831161400f57829003601f168201915b5050505050815260200160058201805461404590615337565b80601f016020809104026020016040519081016040528092919081815260200182805461407190615337565b80156140be5780601f10614093576101008083540402835291602001916140be565b820191906000526020600020905b8154815290600101906020018083116140a157829003601f168201915b505050505081526020016006820180548060200260200160405190810160405280929190818152602001828054801561412057602002820191906000526020600020905b81546001600160a01b03168152600190910190602001808311614102575b50505050508152602001600782015481525050915050919050565b33600090815260126020526040812054601080548392908110614160576141606153aa565b600091825260208083203384526017825260408085208886529092529083205460158054600790940290920194509291839081106141a0576141a06153aa565b6000918252602080832088845260199091526040909220546008909102909101915060ff1615156001146141d357600080fd5b6002836002015410156141e557600080fd5b6006810180546001810182556000828152602090200180546001600160a01b03191633179055805461421a90829081906147f1565b50816015848154811061422f5761422f6153aa565b6000918252602090912082546008909202019081556001808301805491830180546001600160a01b031981166001600160a01b039094169384178255825460ff600160a01b91829004811615159091026001600160a81b0319909216909417178082559154600160a81b90819004909316151590920260ff60a81b1990911617905560028083015490820155600380830180546142cf92840191906147f1565b5060048201816004019080546142e490615337565b6142ef929190614776565b50600582018160050190805461430490615337565b61430f929190614776565b506006828101805461432492840191906147f1565b506007918201549101556006840154610f8790600190615320565b6018602090815260009283526040808420909152908252902080546001820154600283015460048401805493946001600160a01b0384169460ff600160a01b8604811695600160a81b9004169392906112e290615337565b6000838152601a602052604081205460ff1615156001146143b757600080fd5b336000908152601e60209081526040808320878452909152812054601c8054919291839081106143e9576143e96153aa565b906000526020600020906007020190508481600301908051906020019061441192919061469d565b508351614427906004830190602087019061469d565b5080601c838154811061443c5761443c6153aa565b6000918252602090912082546007909202019081556001808301549082015560028083015490820180546001600160a01b0319166001600160a01b03909216919091179055600380830180549183019161449590615337565b6144a0929190614776565b5060048201816004019080546144b590615337565b6144c0929190614776565b506005828101805461103f92840191906147f1565b60008181526019602052604081205460ff1615156001146144f557600080fd5b3360009081526017602090815260408083208584529091528120546015805491929183908110614527576145276153aa565b906000526020600020906008020190506040518060200160405280600081525081600401908051906020019061455e92919061469d565b5060408051602081019182905260009081905261457f91600584019161469d565b508060158381548110614594576145946153aa565b6000918252602090912082546008909202019081556001808301805491830180546001600160a01b031981166001600160a01b039094169384178255825460ff600160a01b91829004811615159091026001600160a81b0319909216909417178082559154600160a81b90819004909316151590920260ff60a81b19909116179055600280830154908201556003808301805461463492840191906147f1565b50600482018160040190805461464990615337565b614654929190614776565b50600582018160050190805461466990615337565b614674929190614776565b506006828101805461468992840191906147f1565b506007918201549101555060019392505050565b8280546146a990615337565b90600052602060002090601f0160209004810192826146cb5760008555614711565b82601f106146e457805160ff1916838001178555614711565b82800160010185558215614711579182015b828111156147115782518255916020019190600101906146f6565b5061471d9291506148d6565b5090565b828054828255906000526020600020908101928215614711579160200282015b8281111561471157825182546001600160a01b0319166001600160a01b03909116178255602090920191600190910190614741565b82805461478290615337565b90600052602060002090601f0160209004810192826147a45760008555614711565b82601f106147b55780548555614711565b8280016001018555821561471157600052602060002091601f016020900482015b828111156147115782548255916001019190600101906147d6565b828054828255906000526020600020908101928215614711576000526020600020918201828111156147115782548255916001019190600101906147d6565b6040518060e00160405280600081526020016000815260200160006001600160a01b03168152602001606081526020016060815260200160608152602001600081525090565b6040518061014001604052806000815260200160006001600160a01b031681526020016000151581526020016000151581526020016000815260200160608152602001606081526020016060815260200160608152602001600081525090565b5b8082111561471d57600081556001016148d7565b80356001600160a01b038116811461490257600080fd5b919050565b600082601f83011261491857600080fd5b813567ffffffffffffffff80821115614933576149336153c0565b604051601f8301601f19908116603f0116810190828211818310171561495b5761495b6153c0565b8160405283815286602085880101111561497457600080fd5b836020870160208301376000602085830101528094505050505092915050565b6000602082840312156149a657600080fd5b6149af826148eb565b9392505050565b600080604083850312156149c957600080fd5b6149d2836148eb565b91506149e0602084016148eb565b90509250929050565b6000806000606084860312156149fe57600080fd5b614a07846148eb565b9250614a15602085016148eb565b9150604084013590509250925092565b60008060408385031215614a3857600080fd5b614a41836148eb565b9150602083013567ffffffffffffffff811115614a5d57600080fd5b614a6985828601614907565b9150509250929050565b600080600080600060a08688031215614a8b57600080fd5b614a94866148eb565b9450602086013567ffffffffffffffff80821115614ab157600080fd5b614abd89838a01614907565b95506040880135915080821115614ad357600080fd5b614adf89838a01614907565b94506060880135915080821115614af557600080fd5b50614b0288828901614907565b95989497509295608001359392505050565b60008060408385031215614b2757600080fd5b614b30836148eb565b946020939093013593505050565b600060208284031215614b5057600080fd5b81516149af816153d6565b600060208284031215614b6d57600080fd5b5035919050565b600060208284031215614b8657600080fd5b5051919050565b60008060008060008060c08789031215614ba657600080fd5b863595506020870135614bb8816153d6565b94506040870135614bc8816153d6565b935060608701359250608087013567ffffffffffffffff80821115614bec57600080fd5b614bf88a838b01614907565b935060a0890135915080821115614c0e57600080fd5b50614c1b89828a01614907565b9150509295509295509295565b600080600060608486031215614c3d57600080fd5b83359250602084013567ffffffffffffffff80821115614c5c57600080fd5b614c6887838801614907565b93506040860135915080821115614c7e57600080fd5b50614c8b86828701614907565b9150509250925092565b600080600080600060a08688031215614cad57600080fd5b8535945060208601359350614cc4604087016148eb565b9250606086013567ffffffffffffffff80821115614ce157600080fd5b614ced89838a01614907565b93506080880135915080821115614d0357600080fd5b50614d1088828901614907565b9150509295509295909350565b60008060008060808587031215614d3357600080fd5b8435935060208501359250604085013567ffffffffffffffff80821115614d5957600080fd5b614d6588838901614907565b93506060870135915080821115614d7b57600080fd5b50614d8887828801614907565b91505092959194509250565b60008060008060808587031215614daa57600080fd5b843593506020850135925060408501359150614dc8606086016148eb565b905092959194509250565b600081518084526020808501945080840160005b83811015614e0c5781516001600160a01b031687529582019590820190600101614de7565b509495945050505050565b6000815180845260005b81811015614e3d57602081850181015186830182015201614e21565b81811115614e4f576000602083870101525b50601f01601f19169290920160200192915050565b805182526020810151602083015260018060a01b0360408201511660408301526000606082015160e06060850152614e9f60e0850182614e17565b905060808301518482036080860152614eb88282614e17565b91505060a083015184820360a0860152614ed28282614dd3565b91505060c083015160c08501528091505092915050565b8051825260018060a01b0360208201511660208301526000604082015160c06040850152614f1a60c0850182614e17565b905060608301518482036060860152614f338282614e17565b91505060808301518482036080860152614f4d8282614e17565b91505060a083015160a08501528091505092915050565b6000610140825184526020830151614f8760208601826001600160a01b03169052565b506040830151614f9b604086018215159052565b506060830151614faf606086018215159052565b506080830151608085015260a08301518160a0860152614fd182860182614dd3565b91505060c083015184820360c0860152614feb8282614e17565b91505060e083015184820360e08601526150058282614e17565b91505061010080840151858303828701526150208382614dd3565b61012095860151969095019590955250919392505050565b6020815260006149af6020830184614e17565b6020815260006149af6020830184614e64565b6060815260006150716060830186614e64565b82810360208401526150838186614e64565b905082810360408401526150978185614e64565b9695505050505050565b6020815260006149af6020830184614f64565b6060815260006150c76060830186614f64565b82810360208401526150d98186614f64565b905082810360408401526150978185614f64565b6040815282516040820152602083015160608201526040830151608082015260018060a01b0360608401511660a08201526000608084015160e060c084015261513a610120840182614e17565b905060a0850151603f198483030160e08501526151578282614e17565b91505060c085015161010084015282810360208401526151778185614ee9565b95945050505050565b8881526001600160a01b0388166020820152861515604082015285151560608201526080810185905261010060a082018190526000906151c283820187614e17565b905082810360c08401526151d68186614e17565b9150508260e08301529998505050505050505050565b8681526001600160a01b038616602082015260c06040820181905260009061521690830187614e17565b82810360608401526152288187614e17565b9050828103608084015261523c8186614e17565b9150508260a0830152979650505050505050565b86815285602082015260018060a01b038516604082015260c06060820152600061527d60c0830186614e17565b828103608084015261523c8186614e17565b87815286602082015285604082015260018060a01b038516606082015260e0608082015260006152c260e0830186614e17565b82810360a08401526152d48186614e17565b9150508260c083015298975050505050505050565b600082198211156152fc576152fc615394565b500190565b600081600019048311821515161561531b5761531b615394565b500290565b60008282101561533257615332615394565b500390565b600181811c9082168061534b57607f821691505b6020821081141561536c57634e487b7160e01b600052602260045260246000fd5b50919050565b60008261538f57634e487b7160e01b600052601260045260246000fd5b500690565b634e487b7160e01b600052601160045260246000fd5b634e487b7160e01b600052603260045260246000fd5b634e487b7160e01b600052604160045260246000fd5b80151581146153e457600080fd5b5056fea26469706673582212208b9b35febc2dcf492cb1e92ffe0c0825df6c1de2f1538fefcf74068cce5fc13664736f6c63430008070033",
  "immutableReferences": {},
  "source": "// SPDX-License-Identifier: GPL-3.0\r\n\r\n// // // // // // // // // // // // // // // // // // // // // // // // // // // // // // // // // // // // // // // // // // // // // // // // // // // // // // // // // // // // //\r\n//                                                                                                                                                                                  //\r\n//                                                                                                                                                                                  //\r\n//                                                                                                                                                                                  //\r\n//                                                                                                                                                                                  //\r\n//       ___      ___      ___     ( )  ___    __  ___  ___      ___      ___\r\n//    ((   ) ) //   ) ) //   ) ) / / //   ) )  / /   //   ) ) //   ) ) //___) )\r\n//    \\ \\    //   / / //       / / //   / /  / /   //   / / //___/ / //\r\n// //_ ) ) ((___/ / ((____   / / ((___/ /  / /   ((___/ / //       ((____\r\n//                                                                                                                                                                                  //\r\n//      @artist ::          stereoIII6.eth                                                                                                                                          //\r\n//      @msg ::             stereoIII6.eth.chat                                                                                                                                     //\r\n//      @github ::          stereoIII6                                                                                                                                              //\r\n//                                                                                                                                                                                  //\r\n//      @dev ::             stereoIII6.eth                                                                                                                                          //\r\n//      @msg ::             stereoIII6.eth.chat                                                                                                                                     //\r\n//      @github ::          stereoIII6                                                                                                                                              //\r\n//                                                                                                                                                                                  //\r\n//      @author ::          stereoIII6.eth                                                                                                                                          //\r\n//      @msg ::             stereoIII6.eth.chat                                                                                                                                     //\r\n//      @github ::          stereoIII6                                                                                                                                              //\r\n//                                                                                                                                                                                  //\r\n//                                                                                                                                                                                  //\r\n//                                                                                                                                                                                  //\r\n// // // // // // // // // // // // // // // // // // // // // // // // // // // // // // // // // // // // // // // // // // // // // // // // // // // // // // // // // // // // //\r\n//                                                                                                                                                                                  //\r\n// // // // // // // // // // // // // // // // // // // // // // // // // // // // // // // // // // // // // // // // // // // // // // // // // // // // // // // // // // // // //\r\n//                                                                                                                                                                                  //\r\n//                                                                                                                                                                                  //\r\n//      @title ::           SocioTope                                                                                                                                             //\r\n//      @description ::     Decentral Social Network Experiment                                                                                                                     //\r\n//      @version ::         0.0.1                                                                                                                                                   //\r\n//      @purpose ::         Bring real life into the Blockchain                                                                                                                     //\r\n//                                                                                                                                                                                  //\r\n//                                                                                                                                                                                  //\r\n//                                                                                                                                                                                  //\r\n//                                                                                                                                                                                  //\r\n//                                                                                                                                                                                  //\r\n// // // // // // // // // // // // // // // // // // // // // // // // // // // // // // // // // // // // // // // // // // // // // // // // // // // // // // // // // // // // //\r\npragma solidity >=0.7.0 <0.9.0;\r\n\r\nimport \"@openzeppelin/contracts/token/ERC1155/ERC1155.sol\";\r\nimport \"@openzeppelin/contracts/token/ERC1155/IERC1155.sol\";\r\nimport \"@openzeppelin/contracts/token/ERC721/ERC721.sol\";\r\nimport \"@openzeppelin/contracts/token/ERC721/IERC721.sol\";\r\nimport \"@openzeppelin/contracts/token/ERC1155/IERC1155.sol\";\r\nimport \"@openzeppelin/contracts/token/ERC20/ERC20.sol\";\r\nimport \"@openzeppelin/contracts/token/ERC20/IERC20.sol\";\r\n\r\ncontract SocioTope {\r\n    address payable admin;\r\n\r\n    // currency address vars\r\n    address private pETH;\r\n    address private pDAI;\r\n    IERC20 public polyETH = IERC20(pETH);\r\n    IERC20 public polyDAI = IERC20(pDAI);\r\n    uint256 public digits;\r\n\r\n    // admin lists mappings\r\n    mapping(address => bool) public blacklist;\r\n    mapping(address => uint256) public greylisted;\r\n    mapping(address => mapping(uint256 => uint256)) public greylist;\r\n    mapping(address => bool) public whitelist;\r\n    mapping(address => mapping(address => bool)) public following;\r\n    mapping(address => mapping(address => bool)) public followers;\r\n    mapping(address => mapping(address => mapping(uint256 => string)))\r\n        public message;\r\n    mapping(address => uint256) public msgRec;\r\n    mapping(address => uint256) public msgSent;\r\n\r\n    struct User {\r\n        uint256 id;\r\n        uint256 cnt;\r\n        uint256 role; // 0 inactive, 1 noob, 2 profiler, 99 admin\r\n        address adr;\r\n        string name;\r\n        string email;\r\n        uint256 likes;\r\n    }\r\n    struct Profile {\r\n        uint256 cnt;\r\n        address adr;\r\n        string avt;\r\n        string cols;\r\n        string fonts;\r\n        uint256 layout;\r\n    }\r\n\r\n    uint256 internal u;\r\n    User[] public users;\r\n    Profile[] public profiles;\r\n    mapping(address => uint256) internal userNum;\r\n    mapping(address => uint256) public userCountByAdr;\r\n\r\n    struct Socio {\r\n        uint256 id;\r\n        address author;\r\n        bool master;\r\n        bool pin;\r\n        uint256 copys;\r\n        address[] ownedBy;\r\n        string title;\r\n        string content;\r\n        address[] likedBy;\r\n        uint256 likes;\r\n    }\r\n    struct Comment {\r\n        uint256 id;\r\n        uint256 sid;\r\n        address author;\r\n        string title;\r\n        string content;\r\n        address[] likedBy;\r\n        uint256 likes;\r\n    }\r\n\r\n    uint256 internal s;\r\n    Socio[] public socios;\r\n    mapping(address => uint256) internal SocioCountOf;\r\n    mapping(address => mapping(uint256 => uint256)) public SocioCountOfAdrById;\r\n    mapping(address => mapping(uint256 => Socio)) public SocioIdOfAdrByCount;\r\n    mapping(uint256 => bool) public socioID;\r\n    mapping(uint256 => bool) public commentID;\r\n\r\n    uint256 internal c;\r\n    Comment[] public comments;\r\n    mapping(address => uint256) internal CommentCountOf;\r\n    mapping(address => mapping(uint256 => uint256))\r\n        public CommentCountOfAdrById;\r\n    mapping(address => mapping(uint256 => Comment))\r\n        public CommentIdOfAdrByCount;\r\n\r\n    constructor(address payable _admin) {\r\n        admin = _admin;\r\n        u = 0;\r\n        users.push(\r\n            User({\r\n                id: 99999999,\r\n                cnt: u,\r\n                role: 99,\r\n                adr: admin,\r\n                name: \"stereo\",\r\n                email: \"type.stereo@pm.me\",\r\n                likes: 10\r\n            })\r\n        );\r\n        makeProfile(admin, \"https://ipfs.io/ipfs/#\", \"light\", \"geo\", 3);\r\n        whitelist[admin] = true;\r\n        userNum[admin] = u;\r\n        u = u + 1;\r\n    }\r\n\r\n    function makeUser(\r\n        uint256 _id,\r\n        uint256 _cnt,\r\n        address _adr,\r\n        string memory _name,\r\n        string memory _email\r\n    ) public returns (bool) {\r\n        users.push(\r\n            User({\r\n                id: _id,\r\n                cnt: _cnt,\r\n                role: 1,\r\n                adr: _adr,\r\n                name: _name,\r\n                email: _email,\r\n                likes: 10\r\n            })\r\n        );\r\n        return true;\r\n    }\r\n\r\n    function makeProfile(\r\n        address _adr,\r\n        string memory _avt,\r\n        string memory _cols,\r\n        string memory _fonts,\r\n        uint256 _layout\r\n    ) public returns (bool) {\r\n        profiles.push(\r\n            Profile({\r\n                cnt: userNum[_adr],\r\n                adr: _adr,\r\n                avt: _avt,\r\n                cols: _cols,\r\n                fonts: _fonts,\r\n                layout: _layout\r\n            })\r\n        );\r\n        User storage user = users[userNum[_adr]];\r\n        user.role = 2;\r\n        user.likes = user.likes + 10;\r\n        users[userNum[_adr]] = user;\r\n        return true;\r\n    }\r\n\r\n    function createSocio(\r\n        uint256 _id,\r\n        bool _master,\r\n        bool _pin,\r\n        uint256 _copys,\r\n        string memory _title,\r\n        string memory _content\r\n    ) public returns (bool) {\r\n        User storage user = users[userNum[msg.sender]];\r\n        require(socioID[_id] != true);\r\n        require(user.role >= 2);\r\n\r\n        socios.push(\r\n            Socio({\r\n                id: _id,\r\n                author: msg.sender,\r\n                master: _master,\r\n                pin: _pin,\r\n                copys: _copys,\r\n                ownedBy: new address[](0),\r\n                title: _title,\r\n                content: _content,\r\n                likedBy: new address[](0),\r\n                likes: 0\r\n            })\r\n        );\r\n\r\n        user.likes = user.likes + 2;\r\n        SocioCountOfAdrById[msg.sender][_id] = s;\r\n        SocioIdOfAdrByCount[msg.sender][SocioCountOf[msg.sender]] = socios[s];\r\n        SocioCountOf[msg.sender] = SocioCountOf[msg.sender] + 1;\r\n        if (SocioCountOf[msg.sender] % 9 == 0) user.likes = user.likes + 1;\r\n        if (SocioCountOf[msg.sender] % 99 == 0) user.likes = user.likes + 10;\r\n        if (SocioCountOf[msg.sender] % 999 == 0) user.likes = user.likes + 100;\r\n        users[userNum[msg.sender]] = user;\r\n        socioID[_id] = true;\r\n        s = s + 1;\r\n        return true;\r\n    }\r\n\r\n    function createComment(\r\n        uint256 _id,\r\n        uint256 _sid,\r\n        string memory _title,\r\n        string memory _content\r\n    ) public returns (bool) {\r\n        User storage user = users[userNum[msg.sender]];\r\n        require(commentID[_id] != true);\r\n        require(socioID[_sid] == true);\r\n        comments.push(\r\n            Comment({\r\n                id: _id,\r\n                sid: _sid,\r\n                author: msg.sender,\r\n                title: _title,\r\n                content: _content,\r\n                likedBy: new address[](0),\r\n                likes: 0\r\n            })\r\n        );\r\n        user.likes = user.likes + 1;\r\n        CommentCountOfAdrById[msg.sender][_id] = c;\r\n        CommentIdOfAdrByCount[msg.sender][\r\n            CommentCountOf[msg.sender]\r\n        ] = comments[c];\r\n        CommentCountOf[msg.sender] = CommentCountOf[msg.sender] + 1;\r\n        users[userNum[msg.sender]] = user;\r\n        commentID[_id] = true;\r\n        c = c + 1;\r\n        return true;\r\n    }\r\n\r\n    function editSocio(\r\n        uint256 _id,\r\n        string memory _title,\r\n        string memory _content\r\n    ) public returns (bool) {\r\n        require(socioID[_id] == true);\r\n        uint256 sc = SocioCountOfAdrById[msg.sender][_id];\r\n        Socio storage socio = socios[sc];\r\n        socio.title = _title;\r\n        socio.content = _content;\r\n        socios[sc] = socio;\r\n        return true;\r\n    }\r\n\r\n    function editComment(\r\n        uint256 _id,\r\n        string memory _title,\r\n        string memory _content\r\n    ) public returns (bool) {\r\n        require(commentID[_id] == true);\r\n        uint256 cc = CommentCountOfAdrById[msg.sender][_id];\r\n        Comment storage comment = comments[cc];\r\n        comment.title = _title;\r\n        comment.content = _content;\r\n        comments[cc] = comment;\r\n        return true;\r\n    }\r\n\r\n    function delSocio(uint256 _id) public returns (bool) {\r\n        require(socioID[_id] == true);\r\n        uint256 sc = SocioCountOfAdrById[msg.sender][_id];\r\n        Socio storage socio = socios[sc];\r\n        socio.title = \"\";\r\n        socio.content = \"\";\r\n        socios[sc] = socio;\r\n        return true;\r\n    }\r\n\r\n    function delComment(uint256 _id) public returns (bool) {\r\n        require(commentID[_id] == true);\r\n        uint256 cc = CommentCountOfAdrById[msg.sender][_id];\r\n        Comment storage comment = comments[cc];\r\n        comment.title = \"\";\r\n        comment.content = \"\";\r\n        comments[cc] = comment;\r\n        return true;\r\n    }\r\n\r\n    function likeSocio(uint256 _id) public returns (bool) {\r\n        User storage user = users[userNum[msg.sender]];\r\n        uint256 sc = SocioCountOfAdrById[msg.sender][_id];\r\n        Socio storage socio = socios[sc];\r\n        require(socioID[_id] == true);\r\n        require(user.role >= 2);\r\n        address[] storage likedArr = socio.likedBy;\r\n        likedArr.push(msg.sender);\r\n        socio.likedBy = likedArr;\r\n        socios[sc] = socio;\r\n        user.likes = user.likes - 1;\r\n        users[userNum[msg.sender]] = user;\r\n        return true;\r\n    }\r\n\r\n    function likeComment(uint256 _id) public returns (bool) {\r\n        User storage user = users[userNum[msg.sender]];\r\n        uint256 sc = CommentCountOfAdrById[msg.sender][_id];\r\n        Comment storage comment = comments[sc];\r\n        require(commentID[_id] == true);\r\n        require(user.role >= 2);\r\n        address[] storage likedArr = comment.likedBy;\r\n        likedArr.push(msg.sender);\r\n        comment.likedBy = likedArr;\r\n        comments[sc] = comment;\r\n        user.likes = user.likes - 1;\r\n        users[userNum[msg.sender]] = user;\r\n        return true;\r\n    }\r\n\r\n    function showSocio(uint256 _id) public view returns (Socio memory) {\r\n        uint256 sc = SocioCountOfAdrById[msg.sender][_id];\r\n        return socios[sc];\r\n    }\r\n\r\n    function showComment(uint256 _id) public view returns (Comment memory) {\r\n        uint256 cc = CommentCountOfAdrById[msg.sender][_id];\r\n        return comments[cc];\r\n    }\r\n\r\n    function myGraph() public view returns (User memory, Profile memory) {\r\n        User memory you = users[userNum[msg.sender]];\r\n        Profile memory pro = profiles[userNum[msg.sender]];\r\n        return (you, pro);\r\n    }\r\n\r\n    function lastPosts()\r\n        public\r\n        view\r\n        returns (\r\n            Socio memory,\r\n            Socio memory,\r\n            Socio memory\r\n        )\r\n    {\r\n        uint256 uc = SocioCountOf[msg.sender];\r\n        require(uc >= 3, \"not enough posts\");\r\n        return (socios[uc - 1], socios[uc - 2], socios[uc - 3]);\r\n    }\r\n\r\n    function lastComments()\r\n        public\r\n        view\r\n        returns (\r\n            Comment memory,\r\n            Comment memory,\r\n            Comment memory\r\n        )\r\n    {\r\n        uint256 uc = CommentCountOf[msg.sender];\r\n        require(uc >= 3, \"not enough comments\");\r\n        return (comments[uc - 1], comments[uc - 2], comments[uc - 3]);\r\n    }\r\n\r\n    function follow(address _follow) public returns (bool) {\r\n        following[msg.sender][_follow] = true;\r\n        followers[_follow][msg.sender] = true;\r\n        return true;\r\n    }\r\n\r\n    function unfollow(address _follow) public returns (bool) {\r\n        following[msg.sender][_follow] = false;\r\n        followers[_follow][msg.sender] = false;\r\n        return true;\r\n    }\r\n\r\n    function writeMessage(address _to, string memory _msg)\r\n        public\r\n        returns (bool)\r\n    {\r\n        message[msg.sender][_to][msgRec[_to]] = _msg;\r\n        msgRec[_to] = msgRec[_to] + 1;\r\n        msgSent[msg.sender] = msgSent[msg.sender] + 1;\r\n        return (true);\r\n    }\r\n\r\n    function readMessage(address _from) public view returns (string memory) {\r\n        return message[_from][msg.sender][msgRec[msg.sender]];\r\n    }\r\n\r\n    /** STANDARD CONTRACT FUNCTIONALITY **/\r\n\r\n    // Fallback function\r\n    fallback() external {}\r\n\r\n    /* **/\r\n    // Withdraw Common ERC20\r\n    function withdraw(\r\n        uint256 _amountMAT,\r\n        uint256 _amountETH,\r\n        uint256 _amountDAI,\r\n        address _adr\r\n    ) public payable returns (bool) {\r\n        require(whitelist[_adr] == true);\r\n        require(admin == msg.sender);\r\n        require(polyETH.balanceOf(address(this)) >= _amountETH * digits);\r\n        polyETH.transfer(admin, _amountETH);\r\n        require(polyDAI.balanceOf(address(this)) >= _amountDAI * digits);\r\n        polyDAI.transfer(admin, _amountDAI);\r\n        require(address(this).balance >= _amountMAT * digits + 1 * 10**14);\r\n        admin.transfer(_amountMAT);\r\n        return true;\r\n    }\r\n\r\n    // Withdraw Unknown Crypto ERC20\r\n    function withdrawUCO(address _erc) public payable returns (bool) {\r\n        IERC20 UCO = IERC20(_erc);\r\n        require(UCO.balanceOf(address(this)) >= 0);\r\n        UCO.transfer(admin, UCO.balanceOf(address(this)));\r\n        return true;\r\n    }\r\n}\r\n",
  "sourcePath": "G:\\crypto-projects\\chainlink-hackathon\\FungoSwap\\contracts\\SocioTope.sol",
  "compiler": {
    "name": "solc",
    "version": "0.8.7+commit.e28d00a7.Emscripten.clang"
  },
  "schemaVersion": "3.4.3",
  "updatedAt": "2021-11-04T09:43:48.479Z",
  "devdoc": {
    "kind": "dev",
    "methods": {},
    "version": 1
  },
  "userdoc": {
    "kind": "user",
    "methods": {},
    "version": 1
  }
}